:020000040800F2
:10000000300D002025020008712900087121000828
:100010006D290008C1040008A13800080000000094
:10002000000000000000000000000000B12E0008E9
:10003000C504000800000000A1290008E52E000802
:100040003F0200083F0200083F0200083F0200088C
:100050003F0200083F0200083F0200083F0200087C
:100060003F0200083F0200083F0200083F0200086C
:100070003F0200083F0200083F0200083F0200085C
:100080003F0200083F0200083F0200083F0200084C
:100090003F0200083F0200083F020008C9040008B0
:1000A0003F020008A92F00083F0200083F02000895
:1000B0003F020008B92F00083F0200083F02000875
:1000C0003F0200083F0200083F0200083F0200080C
:1000D0003F0200083F0200083F0200083F020008FC
:1000E0003F0200083F0200083F0200083F020008EC
:1000F0003F0200083F0200083F0200083F020008DC
:100100003F0200083F0200083F0200083F020008CB
:100110003F0200083F0200083F0200083F020008BB
:100120003F0200083F0200083F0200083F020008AB
:100130003F0200083F0200083F0200083F0200089B
:100140003F0200083F0200083F0200083F0200088B
:100150003F0200083F0200083F0200083F0200087B
:100160003F0200083F0200083F0200083F0200086B
:100170003F0200083F0200080000000000000000ED
:100180003F0200083F02000800F002F800F03AF8D1
:100190000AA090E8000C82448344AAF10107DA45E2
:1001A00001D100F02FF8AFF2090EBAE80F0013F0FA
:1001B000010F18BFFB1A43F0010318471863010031
:1001C00038630100103A24BF78C878C1FAD85207C2
:1001D00024BF30C830C144BF04680C6070470000C1
:1001E0000023002400250026103A28BF78C1FBD840
:1001F000520728BF30C148BF0B6070471FB51FBDF5
:1002000010B510BD00F0EFF81146FFF7F7FF03F04F
:1002100083FB00F00DF903B4FFF7F2FF03BC00F01D
:1002200015F900000948804709480047FEE7FEE746
:10023000FEE7FEE7FEE7FEE7FEE7FEE7FEE7FEE796
:1002400004480549054A064B70470000652F000821
:100250008901000830070020300D002030090020FF
:100260003009002053EA020C00F069802DE9F04BC0
:100270004FF00006002B1FBFB3FA83F503FA05F415
:1002800024FA05F65E4012BF1643B2FA82F502FA6E
:1002900005F4C5F120051EBF22FA05FC44EA0C0452
:1002A000203556EA044C4FEA144418BF641C4FF042
:1002B00000084FF00009904271EB030C39D300297C
:1002C00019BFB1FA81F701FA07F6B0FA80F700FA20
:1002D00007F6C7F120071EBF20FA07FC46EA0C0606
:1002E0002037B6FBF4FCA7EB0507103F07F01F0B08
:1002F000CBF120062CFA06F60CFA0BFB44BFB346F2
:100300000026202FA4BF5E464FF0000B5BEA060CD0
:1003100008BF4FF0010B19EB0B0948EB0608ABFBCC
:10032000027C06FB02CC0BFB03CCC01B71EB0C0167
:10033000C1E70B46024641464846BDE8F08B13B57F
:10034000084318BF4FF0FF300146AFF30080BDE80F
:100350001C40704710B5431C02E010F8011B71B13E
:100360008107FAD14FF0013202C88C1A8C4314EA8B
:10037000C211F9D0C01A0A0603D0C01E10BDC01A9F
:1003800010BD0A0401D0801E10BD0902FCD0401E21
:1003900010BD4FF0000200B5134694469646203932
:1003A00022BFA0E80C50A0E80C50B1F12001BFF42E
:1003B000F7AF090728BFA0E80C5048BF0CC05DF894
:1003C00004EB890028BF40F8042B08BF704748BFE2
:1003D00020F8022B11F0804F18BF00F8012B704756
:1003E000704770477047754600F02CF8AE46050020
:1003F0006946534620F00700854618B020B5FFF740
:100400001FFFBDE820404FF000064FF000074FF0FF
:1004100000084FF0000BAC46ACE8C009ACE8C009DE
:10042000ACE8C009ACE8C00921F007018D4670476F
:1004300010B50446AFF300802046BDE81040FFF73A
:10044000EABE000000487047100000200149182053
:10045000ABBEFEE72600020070470000B0B586B0D4
:1004600000200590CDE90300CDE9010041F24C00E8
:10047000C4F20200016840F2004441F00201016050
:100480000068C4F6000400F00200009000982046C6
:1004900004210022042500F043F9012002900220EB
:1004A00003900320049001A92046019500F04CF828
:1004B00020460421002200F033F906B0B0BD000050
:1004C000FEE700007047000080B54FF4007000F0B8
:1004D0002DF880BD70470000B0B5044600F026F945
:1004E000054640F20400C2F200000068611C18BF1B
:1004F000044400BF00F01AF9401BA042FAD3B0BD7B
:1005000080B5032002F00CF84FF47A70FFF7E4FF97
:10051000072002F005F84FF47A70FFF7DDFF342072
:10052000C4F200004FF42F71016080BD80B540F22D
:100530001441C4F201010A68024208BF80BD08608C
:10054000FFF7DEFF80BD00002DE9F04F83B00F689C
:10055000002F00F0D38000F138424FEAB22201921E
:1005600041F60002C4F600020723002600244FF0E3
:100570000108904208BF0623009309E00F68043485
:1005800037FA08F208F1010806F1020600F0B68019
:10059000A8F1010A012202FA0AFB17EA0B0CEDD0BE
:1005A0004F68122F19D80122BA4012F0061F14D03A
:1005B00082680323D1F80CE003FA06F922EA090263
:1005C0000EFA06F52A4382604268C7F3001522EA54
:1005D0000B0205FA0AF52A43426007F00302032AD8
:1005E00008D1C26AC7F3C00522EA0B0205FA0AF570
:1005F0002A43C262C268032303FA06F522EA05030E
:100600008A686FEA050EB2401A4347F01003122BB6
:10061000C26011D16FF0030202EA5A02024404F0F0
:100620001C070F23D2F8209003FA07F50B6929EA7B
:100630000505BB402B43136202684B6802EA0E02B9
:1006400003F00307B7403A43DB00026096D541F25E
:100650006003C4F202031A6840F2004E42F0010245
:100660001A601A68C4F2010E02F001020292029AA4
:100670002AF003024FF6084A7244CFF6FF7A52F886
:100680000A3004F00C070F25BD4023EA0509019B41
:10069000009D062B38BF1D4605FA07F747EA0903F8
:1006A00042F80A30DEF800204B6842EA0C07DD030E
:1006B00058BF22EA0C07CEF80070DEF804209D0334
:1006C00042EA0C0758BF22EA0C07CEF80470DEF8A5
:1006D0000820DD0242EA0C0740F20C4558BF22EA2E
:1006E0000C07CEF80870C4F201052A689B0242EAA2
:1006F0000C0758BF22EA0C072F603FE703B0BDE8A4
:10070000F08F00000069084018BF0120704700000A
:10071000426902EA0103914341EA03418161704762
:100720001823002A08BF2823C150704740F22870C0
:10073000C2F200000068704740F2040040F22871E5
:10074000C2F20000C2F2000100680A6810440860AA
:100750007047000080B5032000F06AF8002000F028
:1007600009F800281CBF012080BD00F02FF80020F0
:1007700080BD0000B0B540F20401C2F2000109687A
:1007800001B3044640F20000C2F200004FF47A7256
:100790000068B2FBF1F1B0FBF1F001F00FF80F2CA3
:1007A0004FF001050CD858B94FF0FF302146002218
:1007B000002500F02DF840F20800C2F200000460AD
:1007C0002846B0BD01252846B0BD000080B582B0E6
:1007D00041F25800C4F20200816841F001018160D9
:1007E000816801F0010101910199016841F0805196
:1007F0000160006800F0805000900098062000F032
:1008000017F802B080BD000080B503F04BF880BD42
:1008100070B514460D46064603F054F829462246A4
:1008200002F0A8F80146304603F054F870BD00000D
:1008300080B503F061F880BD47F20001C4F2000109
:100840000A68B0F5007F02F4C06026D1B0F5007FE1
:1008500021D00868012262F34A20086040F20000BB
:10086000C2F200000068322358434DF68363C4F29D
:100870001B33A0FB030302EB934000BF4B69421EF6
:10088000824203D213F480601046F7D148694005D4
:1008900044BF0320704700207047B0F5806FFAD046
:1008A0000868022262F34A200860002070470000B6
:1008B00047F20000C4F20000006800F4C060704716
:1008C0002DE9F04782B00446407841F288070007DE
:1008D000C4F2020720D5606E4FEAB05003280BD84F
:1008E0000026DFE800F0020C2F12201D002102F08C
:1008F00059F806468EB909E0012676B906E004F1FA
:100900002000002102F0FCF8064636B93868616E16
:1009100020F440000843386000266078C00601D407
:10092000B24636E0A06E4FEA3060032814D8B246D3
:10093000DFE800F002151C23201D002102F032F830
:1009400082461AE057F87C0C002640F4803047F8C5
:100950007C0C002EE1D1D9E74FF0010A0DE004F143
:100960002000002102F0CCF8824606E057F87C0C0B
:10097000B24640F4803047F87C0CBAF1000FD04604
:1009800008D13868A16E20F0407008434FF0000A8B
:100990003860B046A078800701D4C2465FE057F8BF
:1009A000300CC0000ED457F8300C4FF0010940F065
:1009B000805047F8300C57F8300C00F08050019010
:1009C000019801E04FF0000947F20005C4F200056C
:1009D000286840F480702860FFF7A8FE064600BF34
:1009E0002868C00506D4FFF7A1FE801B0328F7D3B3
:1009F0004FF0030ABAF1000F28D1B86810F4407024
:100A000013D0D4F8841088420BD0B868B96820F4A9
:100A1000407041F48031B960B96821F48031B96027
:100A2000B860C00740F0138103E00020C00740F029
:100A30000E814FF0000ABAF1000F07D1B868D4F860
:100A4000841020F440700843C246B860B9F1000F2A
:100A500005D057F8300C20F0805047F8300C206853
:100A6000C10716D181071CD4410722D4010728D41D
:100A7000C1062ED4810634D481053AD4410540D430
:100A8000410646D401064CD4C10552D4800458D442
:100A900071E03968A26B21F00301114339608107CD
:100AA000E2D53968E26B21F00C011143396041074E
:100AB000DCD53968226C21F030011143396001071F
:100AC000D6D53968626C21F0C00111433960C10686
:100AD000D0D53968A26C21F4407111433960810688
:100AE000CAD53968E26C21F440611143396081054F
:100AF000C4D53968E26D21F44021114339604105C4
:100B0000BED53968226E21F4401111433960410687
:100B1000B8D53968226D21F440511143396001067E
:100B2000B2D53968626D21F4404111433960C10585
:100B3000ACD53968A26D21F440311143396080048D
:100B400019D53968E06E21F040610143B0F1806F42
:100B5000396009D0B0F1006F0DD157F87C0C40F42A
:100B6000801047F87C0C06E0201D012101F01AFFDF
:100B7000002818BF8246A078000719D53968206F71
:100B800021F040610143B0F1806F396009D0B0F1CC
:100B9000006F0DD157F87C0C40F4801047F87C0CA6
:100BA00006E0201D012101F0FDFE002818BF82464D
:100BB000A078400719D53968606F21F04061014382
:100BC000B0F1806F396009D0B0F1006F0DD157F8E6
:100BD0007C0C40F4801047F87C0C06E0201D0121BD
:100BE00001F0E0FE002818BF82466078400618D564
:100BF0003968A06F21F040510143B0F1005F3960C6
:100C000007D0B0F1805F0CD1201D022101F0CAFE97
:100C100004E004F12000022101F072FF002818BF57
:100C200082462068010405D53968E26F21F08041D1
:100C300011433960C00306D53868D4F8801020F01D
:100C4000004008433860504602B0BDE8F087FFF727
:100C50006DFD054641F28936B86880073FF5E9AE7B
:100C6000FFF764FD401BB042F6D34FF0030ABAF120
:100C7000000F7FF4EBAEE1E62DE9F04381B00028F0
:100C800079D042F20008C4F202080446D8F8000005
:100C90000D4600F0070088420CD2D8F8000020F082
:100CA00007002843C8F80000D8F8000000F007004B
:100CB000A84260D1207841F20809C007C4F20209B5
:100CC00050D12068810707D5D9F80010A26821F01B
:100CD000F0011143C9F80010D8F8001001F0070125
:100CE000A9420CD9D8F8001021F007012943C8F80F
:100CF0000010D8F8001001F00701A9423BD14107CC
:100D000007D5D9F80010E26821F4E0611143C9F871
:100D10000010000708D5D9F80000216920F46050C0
:100D200040EAC100C9F8000000F084F8D9F80010CA
:100D300043F66C22C1F30311C0F60002515C40F28D
:100D4000000201F01F0120FA01F140F20800C2F296
:100D500000000068C2F200021160FFF70BFD01B055
:100D6000BDE8F0836068022809D003282AD159F829
:100D7000081C890107D4012001B0BDE8F08359F8AF
:100D8000081C8903F7D5D9F8001021F003010843A6
:100D9000C9F80000FFF7CAFC064641F2883700BFD9
:100DA000D9F80000616800F00C00B0EB810F3FF44F
:100DB00088AFFFF7BBFC801BB842F1D9032001B01C
:100DC000BDE8F08359F8081C10B14905D3D5DAE71E
:100DD0008907D0D5D7E7000040F20000C2F200003A
:100DE0000068704780B5FFF7F7FF41F20801C4F2D1
:100DF0000201096843F67C22C1F30221C0F6000219
:100E0000515C01F01F01C84080BD000080B5FFF7B4
:100E1000E3FF41F20801C4F20201096843F67C22B3
:100E2000C1F3C221C0F60002515C01F01F01C840AD
:100E300080BD000041F20C01C4F2020151F8040C23
:100E400010F00C02086805D00C2A40D100F0030015
:100E500001283CD151F80C0C000703D4D1F88800CC
:100E6000000A02E051F80C0C000943F6842300F05C
:100E70000F00C0F6000353F82030002A184618BFB0
:100E800000200C2A18BF7047086800F003000228F1
:100E900006D0032804BF41F20023C0F27A0303E026
:100EA00042F20043C0F2F4030868C0F302100A687B
:100EB0000130C2F3062209685A43B2FBF0F0C1F3D5
:100EC0004161022202EB4101B0FBF1F07047042ABC
:100ED00007D0082A0BD141F200200023C0F27A008B
:100EE000CFE742F200400023C0F2F400C9E700203F
:100EF0000023C6E72DE9F04381B0002800F02682E8
:100F000041F200060446C4F20206B068F168227895
:100F100000F00C09D00601F003081CD42078C007AB
:100F200000F0EB80B9F1080F43D0B9F10C0F08BF06
:100F3000B8F1030F3DD06568B5F5803F07D0306844
:100F4000B5F5A02F40F0B68040F4802030603068C6
:100F500040F48030B4E0B9F1000F1BD0B9F10C0FB0
:100F600008BFB8F1010F15D0A1693068002977D00A
:100F700040F001003060FFF7D9FB0546306880077C
:100F800000F18080FFF7D2FB401B02284FF00300E6
:100F9000F4D90EE23068800703D5A069002800F07C
:100FA000D581206A316809070CD4D6F89410090954
:100FB00009E03068800340F1A0806068002840F0BC
:100FC0009C80C3E1316801F0F001884216D901F03C
:100FD00035FE002840F0BA81306840F008003060EB
:100FE0003068D4E9072120F0F000084330607068D1
:100FF00020F47F4040EA0220706013E03168B9F1CC
:10100000000F41F008013160316821F0F00141EA40
:10101000000131607168E26921F47F4141EA0221F7
:10102000716041D0FFF706FFB16843F66C22C1F34F
:101030000311C0F60002515C40F2000201F01F01F2
:1010400020FA01F140F20800C2F200000068C2F28A
:1010500000021160FFF78EFB002840F0AA815DE7D7
:1010600020F001003060FFF761FB05463068800723
:101070007FF554AFFFF75AFB401B02284FF00300E7
:10108000F4D996E1306840F0080030603068D4E967
:10109000072120F0F00008433060706820F47F40A2
:1010A00040EA0220706039E701F0C8FD002840F0F6
:1010B0004D81B7E720F480303060306820F4802024
:1010C0003060FFF733FB002D054613D030688003F6
:1010D00013D4FFF72BFB401B64284FF00300F5D916
:1010E00067E100BFFFF722FB401B64284FF00300BD
:1010F00000F25F8130688003F4D4207880072CD51B
:10110000B9F1040F1BD0B9F10C0F08BFB8F1020FF1
:1011100015D0E1683068002900F01C8140F480702F
:101120003060FFF703FB0546306840050ED4FFF73B
:10113000FDFA401B02284FF00300F5D939E1306871
:10114000400503D5E068002800F00081706821693F
:1011500020F0F85040EA01607060207800075ED40B
:101160002078400775D4A06A002800F02281022868
:1011700040F0BD80F068E16A00F003028A4240F06E
:10118000DB80226B6FF00F0300F0700103EB0212A3
:10119000914240F0D180616B00F4FE42B2EB012F2E
:1011A00040F0CA80A16B00F40032073918BF01215A
:1011B0008A4240F0C180E26B0023CFF6E07303EA7D
:1011C000025200F4C001A2F50012914240F0B48036
:1011D000216C4FF07E4202EA016100F0C06001F133
:1011E0007E41884240F0A8803068800100F14B8148
:1011F000306840F080703060F06840F08070F060DF
:10120000FFF794FA04463068800100F13C81FFF753
:101210008DFA001B02284FF00300F4D9C9E0616980
:10122000D6F8940000294ED040F00100C6F8940092
:10123000FFF77CFA054600BFD6F8940080078FD4EC
:10124000FFF774FA401B0228F6D9032001B0BDE86D
:10125000F083B06DC0000BD4B06D4FF0010840F0CA
:101260008050B065B06D00F080500090009801E0B3
:101270004FF0000847F20007C4F200073868C005C5
:1012800011D4386840F480703860FFF74FFA054693
:101290003868C00507D4FFF749FA401B02284FF011
:1012A0000300F5D985E0A568012D07D0D6F8900098
:1012B000052D61D140F00400C6F89000D6F89000EA
:1012C00040F0010060E020F00100C6F89400FFF754
:1012D0002DFA0546D6F8940080077FF541AFFFF759
:1012E00025FA401B02284FF00300F3D961E0B9F161
:1012F0000C0F2BD0306820F080703060306810F018
:10130000205F03D1F06820F00300F060F0684FF632
:10131000FF71CFF6EE610840F060FFF707FA044670
:101320003068800140F1AF80FFF700FA001B03280E
:101330004FF00300F4D33CE0B9F10C0F06D0306855
:1013400040015CBF30685FEAC00049D5012001B0B0
:10135000BDE8F08320F480703060FFF7E7F90546C0
:10136000306840057FF5F9AEFFF7E0F9401B022831
:101370004FF00300F4D91CE020F00100C6F8900003
:10138000D6F8900020F00400C6F89000FFF7CEF9E0
:10139000002D054641F2883715D000BFD6F89000E1
:1013A000800714D4FFF7C2F9401BB8424FF0030086
:1013B000F4D901B0BDE8F083FFF7B8F9401BB8429B
:1013C0004FF00300F5D8D6F890008007F4D4B8F1B8
:1013D000000F3FF4C8AEB06D20F08050B065C2E69B
:1013E000306820F080703060FFF7A0F90546306863
:1013F000800107D5FFF79AF9401B02284FF0030040
:10140000F5D9D6E7F06848F28C01CFF69D1104F1CA
:101410002C0700EA010C8ECF6FF00F00D4E90F54B7
:1014200000EB02100022CFF6E07241EA0C0102EA62
:1014300005524FF07E450843A2F5001205EA046507
:10144000002440EA032005F17E45CFF6FE741043E8
:1014500004EA473728433843F060306840F0807032
:101460003060F06840F08070F060FFF75FF904468C
:101470003068800107D4FFF759F9001B02284FF0AC
:101480000300F5D995E7002001B0BDE8F083000026
:10149000002804BF01207047B0B50446406A20B15F
:1014A0000020206104F1140005E06068B0F5827F3F
:1014B00003D004F11C00002101600025A562206E0C
:1014C00018B92046E56500F04DF802202066206836
:1014D000D4F80CE00268BEF5E06F22F04002026032
:1014E0004EF4006298BF0125B2F5706F1CBF002357
:1014F000A3624FEA053CD4E90135D4E9042103F4A1
:10150000827305F404452B4402F002021A44A369D5
:1015100001F00101E569114403F40072114405F082
:101520003802256A114405F08002A56A114405F4C9
:101530000052114301600421626A0EF4706501EAF1
:101540001341636B45EA0C0502F01002294303F0D6
:1015500008031143194341600020012160662166A0
:10156000B0BD00002DE9F04387B00026CDE9056647
:10157000CDE90366006843F60041C4F200018842E9
:10158000029602D007B0BDE8F08341F24C00C4F2ED
:101590000200C16840F2004441F40041C160C168EA
:1015A000C4F6000401F4004101910199016802AD03
:1015B00041F00401016001684FF0020801F00401EC
:1015C0000191019901684FF0030941F002010160A6
:1015D0000068062700F00200019001984FF40060B7
:1015E000029004F580602946CDE90386CDF8149079
:1015F0000697FEF7A9FF2820CDE9020820462946D4
:10160000CDE904690697FEF79FFF07B0BDE8F083B8
:101610002DE9F04381B00446C06D012803D10220BA
:1016200001B0BDE8F0834FF001091D4616460F4694
:10163000C4F85C90FFF77AF8216E01295FD18046EB
:10164000002F4FF0010018BF002E00F0AE800320E5
:10165000206600206066A763A687E6872064A4F85A
:101660004400A4F84600A168C4E91300B1F5004F96
:1016700008D12068016821F040010160016841F44F
:101680008041016020680168490603D4016841F087
:10169000400101606168731EE268B1FA81F1B3FA3A
:1016A00083F349095B09B2F5E06F41EA030128D9E8
:1016B00039B1A16B0988C160B81CA063E08F013803
:1016C000E087E08F002859D06E1C0AE0A16B31F84A
:1016D000022BC260A163E08F0138E087E08F002811
:1016E0004CD0206881688907F0D4FFF71FF8002EDE
:1016F000F4D0A0EB0800A842F0D3032055E002206C
:1017000053E000294FF6FE7111D0E28F022A05D373
:1017100037F8022BC2604FF6FE7004E03A7802738D
:10172000A06B471C481CA763E28F1044E087E08F42
:1017300020B36E1C4F1C0AE000780873A06B39467A
:101740000130A063E08F0844E087E08FB0B12168EA
:101750008868800708D4FEF7E9FF002EF5D0A0EBDB
:101760000800A842F1D327E0E28FA06B022AE3D35E
:1017700030F8022BCA604FF6FE71E2E72046294698
:10178000424601F0B1FA00281CBF20206066A06824
:1017900038B9002000902068C168009180680090EE
:1017A0000098606E002818BF01200021C4F86090E6
:1017B000E16501B0BDE8F0830320F6E780B501F0F4
:1017C00079FB80BD70470000704700007047000043
:1017D00010B5C26B012A4FF0020253D00123C3633C
:1017E0000264026843F2004C5368D2F808E0C4F285
:1017F000010C624505D042F60044C4F20104A24245
:1018000003D14C6823F4700323430C6823F0700366
:10181000234340F6FF34C4F20004A242536010DDBB
:1018200043F2FF33C4F201039A421ADC40F600434C
:10183000C4F200039A421CD042F60043C4F20103F2
:101840000CE0B2F1804F14D040F20043C4F2000328
:101850009A420ED040F60003C4F200039A4208D028
:101860000CE044F20003C4F201039A4201D0624545
:1018700004D189682EF08003194391600121002270
:101880000164C263104610BD002804BF01207047E8
:1018900010B50446006C20B90020E063204600F03B
:1018A00015F8022020642068211D01F08DFB012025
:1018B000E0666064A064E06420656065A065E06542
:1018C00020666066A0662064002010BD80B584B0EC
:1018D0000068B0F1804F22D040F20041C4F2000114
:1018E00088422BD042F60041C4F2010188423AD12D
:1018F00041F25800C4F202008168002241F4006104
:1019000081608068002100F4006003900398192032
:10191000FEF77EFF1920FEF777FF04B080BD41F28D
:101920005800C4F20200016841F001010160006842
:1019300000F001000290029804B080BD41F258000E
:10194000C4F202000168002241F002010160006857
:10195000002100F00200019001981D20FEF758FFC1
:101960001D20FEF751FF04B080BD0000016C01296D
:101970001CBF0120704702210164016840F6FF325C
:10198000C868C4F20002914240F00100C8600EDD58
:1019900043F2FF30C4F20100814218DC40F60040FF
:1019A000C4F2000081421ED042F6004017E0B1F1BF
:1019B000804F18D040F20040C4F20000814212D0A3
:1019C00040F60000C4F2000081420CD01EE044F258
:1019D0000000C4F20100814205D043F20040C4F28D
:1019E0000100814212D188680722C0F20102024040
:1019F000062A4FF000000ED0B2F5803F08BF7047B6
:101A0000086840F00100086000207047086840F056
:101A1000010008600020704710B50446C06B012823
:101A20004FF0020008BF10BD0122E263206420686D
:101A300088238268CFF6FE731A4082600A683F2AC4
:101A400014DD5F2A18DD602A28D0B2F5005F2DD0A2
:101A5000702A40D1D1E9012CCB68614601F058FBD6
:101A60002068816841F07701816034E01F2A0FDC33
:101A700092B1102A10D02EE0402A23D0502A2AD129
:101A80004B68CA68194601F0B7FC2068502120E075
:101A9000202A01D0302A1ED111461AE04B68CA68AC
:101AA000194601F0BBFC2068602112E0D1E9012C4D
:101AB000CB68614601F02CFB2068816841F48041CD
:101AC000816008E04B68CA68194601F095FC2068FF
:101AD000402101F029FB012020640020E06310BDBB
:101AE0007047000010B5044600680169890744BFCB
:101AF000C1685FEA817140D420680169490744BF29
:101B0000C1685FEA417144D420680169090744BF94
:101B1000C1685FEA017149D420680169C90644BF00
:101B2000C1685FEAC1614DD420680169C9071CBF63
:101B3000C1685FEAC17152D120680169090644BFDA
:101B4000C1685FEA016151D420680169C90544BFD9
:101B5000C1685FEA016150D420680169490644BF49
:101B6000C1685FEA41614FD420680169890644BFBA
:101B7000C1685FEA81614ED410BD6FF0020101615E
:101B80000121E161806980074CD02046FFF7A8FF62
:101B90004EE06FF0040101610221E161806910F4FF
:101BA000407F48D02046FFF79BFF4AE06FF00801D6
:101BB00001610421E161C069800745D02046FFF73B
:101BC0008FFF47E06FF0100101610821E161C069FA
:101BD00010F4407F41D02046FFF782FF43E06FF0D2
:101BE00001010161204600F0C1F9A5E76FF0800115
:101BF00001612046FFF7E8FDA6E76FF480710161FF
:101C00002046FFF7DFFDA7E76FF0400101612046A6
:101C100000F0DEF9A8E76FF0200101612046FFF730
:101C2000D5FD10BD204600F04BF8204600F0C8F866
:101C30000020E06160E7204600F042F8204600F016
:101C4000BFF80020E0615FE7204600F039F8204649
:101C500000F0B6F80020E0615EE7204600F030F8C2
:101C6000204600F0ADF80020E0615DE780B586B069
:101C700000210591CDE9031100680291B0F1804F78
:101C8000019101D006B080BD41F24C00C4F20200C7
:101C9000026842F0010202600068022200F00100C6
:101CA0000090009801200190CDE90221CDE90410B7
:101CB00001A94FF09040FEF747FC06B080BD000040
:101CC00070470000B0B50446C06B012804BF022075
:101CD000B0BD4FEAB2000D4601210528E16347D8A7
:101CE000DFE800F0030B131B23332068294601F0C3
:101CF00023FA206850F8181F1EE02068294601F0DA
:101D00005BFA206850F8181F26E02068294601F089
:101D10009BFA206850F81C1F0EE02068294601F04D
:101D2000DBFA206850F81C1F16E02068294601F0F5
:101D300003FB206850F8541F41F00801016001685E
:101D400021F00401016029690FE02068294601F0B3
:101D500023FB206850F8541F41F4006101600168C2
:101D600021F4806101602969090202681143016060
:101D70000020E063B0BD0000002804BF01207047D0
:101D800010B50446006C20B90020E063204600F046
:101D900015F8022020642068211D01F015F90120AA
:101DA000E0666064A064E06420656065A065E0654D
:101DB00020666066A0662064002010BD70470000A9
:101DC00070470000B0B5044659B1081F4FEAB00093
:101DD000032809D8DFE800F0020B0E1104F14800D7
:101DE0000DE004F144000AE004F1580007E004F1BA
:101DF0004C0004E004F1500001E004F154000068DC
:101E000001281CBF0120B0BD59B1081F4FEAB00026
:101E1000032809D8DFE800F0020B0E1104F1480096
:101E20000DE004F144000AE004F1580007E004F179
:101E30004C0004E004F1500001E004F154000222DF
:101E4000026020680122012501F050F92168A1F10A
:101E50008040A0F596304FEAB02006284AD805FA0F
:101E600000F010F0650F45D0486C40F6FF32C4F228
:101E7000000240F40040914248640EDD43F2FF301E
:101E8000C4F20100814216DC40F60040C4F20000BA
:101E900081421CD042F6004015E0B1F1804F16D0CF
:101EA00040F20040C4F20000814210D040F6000031
:101EB000C4F2000009E044F20000C4F201008142D3
:101EC00005D043F20040C4F20100814247D1886846
:101ED0000722C0F201020240062A4FF0000043D060
:101EE000B2F5803F08BFB0BD086840F0010008604F
:101EF0000020B0BD42F6FF30C4F2010081420DDC8B
:101F000040F2FF70C4F20000814210DCB1F1804F5A
:101F1000DDD040F20040C4F20000D6E743F6FF7087
:101F2000C4F2010081420DDC42F60040C5E740F6F4
:101F30000000C4F200008142C9D040F60040C4F263
:101F40000000C2E744F20000C4F201008142BED0AA
:101F500044F60000C4F2010081423FF485AF0868F6
:101F600040F0010008600020B0BD0000B0B504469C
:101F7000006840F20045C4F20005A84207D141F2D2
:101F80000000C4F600004FF40071FEF7C1FB2068AA
:101F900005F59431884202D105A001F059FD206871
:101FA000B0F1804F18BFB0BD05A001F051FDB0BD2C
:101FB0006920616D2074696D6572310A000000004E
:101FC0006920616D2074696D6572320A000000003D
:101FD0007047000010B598B10446406F20B900204A
:101FE0002067204600F024F82420606720680168FC
:101FF00021F001010160204601F0C8FA012801D159
:10200000012010BD606A10B1204601F019FA206865
:10201000416821F490414160816821F02A0181608A
:10202000016841F001010160204601F07DFA10BD18
:1020300080B586B00021CDE90411CDE90211006818
:1020400043F60002C4F201029042019101D006B0B1
:1020500080BD41F24C00C4F20200426942F4804269
:102060004261426902F480420092009A026842F0A2
:1020700001020260006800F00100009000984FF437
:10208000C06001900220CDE90201032004900720E6
:10209000059001A94FF09040FEF756FA06B080BDBA
:1020A0002DE9F04381B00446406F20280AD10E4646
:1020B00000294FF0010058D01746002A55D0206F54
:1020C000012803D1022001B0BDE8F0830120206780
:1020D0004FF0000921201D46C4F87C906067FEF790
:1020E00025FBA4F85070A4F85270A1680746B1F51A
:1020F000805F07D1206900281CBF30464E46B0469D
:10210000064601E04FF00008C4F8709009E000BFF7
:1021100016F8010B21680885B4F852000138A4F8BC
:102120005200B4F8520088B12046802100223B467C
:10213000009501F05FFB88B9002EE9D138F8020B59
:1021400021686FF35F2008850026E5E720464021DF
:1021500000223B46009501F04DFB18B1032001B071
:10216000BDE8F08320206067002001B0BDE8F08367
:10217000FEE70000F0B581B007462A201C4616464F
:102180000D4600F0A5F9380A00F0B6F9F8B200F0F3
:10219000B3F9300A00F0B0F9F0B200F0ADF92B203D
:1021A00000F096F9280A00F0A7F9E8B200F0A4F9C7
:1021B000200A00F0A1F9E0B200F09EF92C2000F016
:1021C00087F901B0F0BD0000B0B50446050A002053
:1021D0000021EF22EF23FFF7CDFF40F2A8216FF09F
:1021E0000100C2F2000140F27E4200BF0B18023033
:1021F00090429D70DC70F9D140F20040C4F60000BE
:1022000010210122FEF78CFA40F2A8240025C2F228
:10221000000400BF20464FF4906100F033F9632DB5
:1022200005F10105F6D3B0BD2DE9F04387B00027D5
:1022300041F24C000697CDE90477CDE90277C4F26C
:102240000200016840F2004941F0080101600168A4
:10225000C4F6000901F0080101910199016809F52E
:10226000006541F0020101600068802100F0020079
:1022700001900198284600228026FEF751FA484630
:10228000D02100224FF0D008FEF74AFA029602AEA3
:10229000012428463146CDE903470597FEF754F956
:1022A00048463146CDE90284CDE90477FEF74CF982
:1022B000284680210022FEF733FA4846802100227A
:1022C000FEF72EFA484640210022FEF729FA782030
:1022D000FEF702F9484640210122FEF721FA07B035
:1022E000BDE8F08380B5FFF79FFF7820FEF7F4F894
:1022F000112000F0EDF87820FEF7EEF8362000F01F
:10230000E7F8002000F0F8F83A2000F0E1F8652046
:1023100000F0F2F8B22000F0DBF80C2000F0ECF84E
:102320000C2000F0E9F8002000F0E6F8332000F07F
:10233000E3F8332000F0E0F8B72000F0C9F872208D
:1023400000F0DAF8BB2000F0C3F83D2000F0D4F82C
:10235000C02000F0BDF82C2000F0CEF8C22000F024
:10236000B7F8012000F0C8F8C32000F0B1F8192038
:1023700000F0C2F8C42000F0ABF8202000F0BCF858
:10238000C62000F0A5F80F2000F0B6F8D02000F02D
:102390009FF8A42000F0B0F8A12000F0ADF8E020F4
:1023A00000F096F8D02000F0A7F8042000F0A4F880
:1023B0000D2000F0A1F8112000F09EF8132000F08D
:1023C0009BF82B2000F098F83F2000F095F854205F
:1023D00000F092F84C2000F08FF8182000F08CF8F4
:1023E0000D2000F089F80B2000F086F81F2000F087
:1023F00083F8232000F080F8E12000F069F8D02075
:1024000000F07AF8042000F077F80C2000F074F85F
:10241000112000F071F8132000F06EF82C2000F06D
:102420006BF83F2000F068F8442000F065F8512078
:1024300000F062F82F2000F05FF81F2000F05CF839
:102440001F2000F059F8202000F056F8232000F05B
:1024500053F8212000F03CF8292000F039F8002042
:102460000021EF22EF23FFF785FE4FF6FF70FFF705
:10247000ABFE40F20040C4F6000080210122FEF7CE
:102480004FF980BD80B500F021FC80BD70B51546C8
:102490000244F02A1AD81C460B44F02B88BF70BDAA
:1024A000013A013B049E92B29BB2FFF763FE40F2F9
:1024B0000040C4F6000010210122FEF731F905FBAF
:1024C00004F0400081B23046FFF7DCFF70BD000031
:1024D00080B582B08DF8070040F20040C4F60000DD
:1024E00010210022FEF71CF90DF107000121FFF772
:1024F000C9FF02B080BD000080B582B08DF8070032
:1025000040F20040C4F6000010210122FEF708F955
:102510000DF107000121FFF7B5FF02B080BD0000FB
:10252000C11700EB517121F00701401A072888BF3D
:10253000704770B50FA151F8202016A141F2000696
:1025400051F820401BA1C4F6000651F82050304637
:102550008021FEF7E5F830464FF480712246FEF701
:10256000DFF830464FF400712A46FEF7D9F8BDE88F
:1025700070407047010000000100000000000000F2
:10258000000000000000000001000000000000004A
:102590000100000001000000000000000100000038
:1025A000000000000100000000000000000000002A
:1025B0000100000000000000010000000100000018
:1025C000010000000000000000000000000000000A
:1025D0000100000070B586B0002541F24C00059561
:1025E000CDE90355CDE90155C4F20200016841F27D
:1025F000000441F0100101600068C4F6000400F01E
:1026000010000090009820464FF4607100224FF4B3
:102610006076FEF785F801200196CDE9020501A953
:1026200020460495FDF790FF204680210122FEF709
:1026300077F820464FF480710122FEF771F82046AA
:102640004FF400710122FEF76BF806B070BD000078
:1026500070B586B0002041F24C010590CDE9030031
:10266000CDE90100C4F202010A6840F6004442F0DC
:1026700080020A600A68C4F6000402F08002009238
:10268000009A0A6801AD42F001020A600A68012658
:1026900002F001020092009A0A6842F008020A6001
:1026A0000A6802F008020092009A0A6842F00402E6
:1026B0000A600A6802F004020092009A0A6842F076
:1026C00002020A60096801F00201009100994FF4CA
:1026D000A061CDE90110204629460396FDF734FF9D
:1026E0004FF4007001900020C1F22100CDE90206F4
:1026F00020462946FDF728FF172001210322FEF777
:1027000087F81720FEF780F806B070BDB0B540F22C
:10271000700043F60041C2F20000C4F200014FF421
:10272000827200234FF4E06C4FF0020E01244FF44C
:10273000007580E80E500721C0E90545C361C0E976
:102740000833C0E90A31C0E90C33FEF7A1FE0028C6
:1027500018BFFDF7BFFEB0BD80B588B040F2D8000D
:1027600042F600420021C2F20000C4F2010249F622
:102770003F4340F2CF7C0791CDE90511CDE903112C
:10278000CDE90111C0E90023C0E9021CC0E9041130
:102790008161FFF779F8002818BFFDF79BFE4FF421
:1027A0008050049040F2D800C2F2000004A9FFF764
:1027B00033F9002818BFFDF78DFE0020CDE9010098
:1027C000039040F2D800C2F2000001A9FFF700F820
:1027D000002818BFFDF77EFE08B080BD10B58EB092
:1027E00040F248100021C2F200004FF0804240F257
:1027F0001F3340F2E734CDE90C11CDE90A11CDE9E0
:102800000811CDE90611CDE90411CDE90211CDE998
:102810000011C0E90023C0E9021401618161FFF7E2
:1028200033F8002818BFFDF755FE4FF480500A908A
:1028300040F24810C2F200000AA9FFF7EDF80028A4
:1028400018BFFDF747FE40F24810C2F20000FFF744
:1028500093FA002818BFFDF73DFE40F2481000240F
:10286000C2F2000007A907940994FEF7B1FF0028FF
:1028700018BFFDF72FFE4020C0F201000090642039
:10288000CDE9010440F24810C2F20000694600227E
:102890000494FFF717FA002818BFFDF71BFE40F25B
:1028A0004810C2F20000FFF7E1F90EB010BD0000C1
:1028B00080B588B040F2B81040F200420021C2F268
:1028C0000000C4F2000249F63F4340F2E73C0791A2
:1028D000CDE90511CDE90311CDE90111C0E90023CE
:1028E000C0E9021C01618161FEF7CEFF002818BF1C
:1028F000FDF7F0FD4FF48050049040F2B810C2F2A2
:10290000000004A9FFF788F8002818BFFDF7E2FDD2
:1029100000200190039040F2B810C2F2000001A91B
:10292000FEF756FF002818BFFDF7D4FD08B080BDA4
:1029300080B540F2282043F60001C2F20000C4F244
:10294000010100234FF00C0C4FF4E13280E80E003F
:10295000C0E90333C0E905C3C0E907334362FFF7A9
:1029600039FB002818BFFDF7B5FD80BDFEE700006C
:102970007047000000F0070080F00703042B28BF19
:1029800004234FF0FF3C03380CFA03F338BF002058
:10299000994381400CFA00F022EA00000843704796
:1029A00070470000F0B581B041F20007C4F20207A1
:1029B000FA680D46910704460FD0F968206801F0C7
:1029C0000301814207D130B1F868C0F30210616899
:1029D000013088422DD001202CE02168032909D044
:1029E000022910D0012914D13868012222EA5000AE
:1029F00000BB13E0386880030ED43868012222EA55
:102A00009040B8B90AE03868012222EA902088B9DB
:102A100004E0012070B901E0002058B9F86862684C
:102A200020F073006FF00F0303EB02120843104312
:102A3000F860002008B101B0F0BD386820F0806077
:102A40003860FDF773FE06463868000108D5FDF7CB
:102A50006DFE801B0328F7D303200028EBD102E092
:102A600000200028E7D19DB1386948F2FF01012D0F
:102A7000CFF6FF111AD101F1B461014020690023A2
:102A8000CFF6E073A26803EA0050A0F5001016E04C
:102A9000386948F2FF01CFF6FD710140D4E9022008
:102AA0000023CFF6FE7303EA403008E0014060697E
:102AB0004FF07E43A26803EA006000F17E4041EAE5
:102AC000022108433861386840F080603860FDF7C3
:102AD0002DFE05463868000108D4FDF727FE401B8F
:102AE0000328F7D303200028A5D102E00020002806
:102AF000A1D1A069396908433861002001B0F0BD57
:102B0000F0B581B041F20007C4F20207FA680D4641
:102B1000910704460FD0F968206801F00301814253
:102B200007D130B1F868C0F3021061680130884203
:102B30002DD001202CE0216803290FD0022907D0D5
:102B4000012914D13868012222EA500000BB13E0A9
:102B50003868012222EA9020D0B90DE0386880035D
:102B600008D43868012222EA904088B904E00120A4
:102B700070B901E0002058B9F868626820F073006D
:102B80006FF00F0303EB021208431043F8600020BC
:102B900008B101B0F0BD386820F080503860FDF712
:102BA000C5FD06463868800008D5FDF7BFFD801BCF
:102BB0000328F7D303200028EBD102E000200028EF
:102BC000E7D178696DB148F2FF01CFF6FF110140FE
:102BD00020694FF07E43A26803EA006000F17E4066
:102BE0000BE048F2FF01CFF6FD710140D4E902206D
:102BF0000023CFF6FE7303EA403041EA0221084386
:102C00007861386840F080503860FDF78FFD0546E8
:102C10003868800008D4FDF789FD401B0328F7D3EE
:102C200003200028B5D102E000200028B1D160695E
:102C3000796908437861002001B0F0BDB0B582B079
:102C400041F25805C4F2020529680446C90015D4AA
:102C5000286840F080502860286800F0805001907B
:102C60000198FDF725FE296821F080512960B0F513
:102C7000007F08D0802C0DD9032015E0FDF718FE49
:102C8000B0F5007FF6D1812C0DD30120A02C88BF98
:102C9000022009E0A4F17000B0FA80F04009802C15
:102CA00008BF022000E0002042F20001C4F202014D
:102CB0000A6822F0070202440A60096801F007016D
:102CC000081A18BF012002B0B0BD000080B50A4646
:102CD000014640F27000C2F200004FF47A73FEF732
:102CE00097FCC0B280BD000070B515460E464FF48B
:102CF000C05132462B46044600F018F868B9204609
:102D000031462A4600F07CF838B920464FF4C061BD
:102D100032462B4600F00AF828B1606E40F02000E1
:102D20006066032070BD002070BD00002DE9F043F7
:102D300081B01E4690460D468146FDF7F7FC301ADD
:102D400000EB0807FDF7F2FC40F20001C2F20001BF
:102D5000096823225143090D79430091D9F80010E5
:102D60008A682A421CD0064608F1010405E000BF2B
:102D7000D9F800108868284212D0B5F5C06F08BF96
:102D8000087B002CF4D0FDF7D1FC801BB8420BD29D
:102D900000980099002808BF0746481E0090E7E702
:102DA000002001B0BDE8F083D9E900014268B1F527
:102DB000827F22F0E00242600BD1D9F80810B1F511
:102DC000004F02D0B1F5806F03D1016821F04001BE
:102DD0000160D9F82810B1F5005F07D1016821F42E
:102DE00000510160016841F4005101600120C9F8FF
:102DF00060000020C9F85C00032001B0BDE8F0834A
:102E0000F0B581B015460E460446FDF78FFC281A32
:102E10008719FDF78BFC40F20001C2F2000109683E
:102E2000C1F3CB317943009121688968090602D446
:102E3000002001B0F0BD0546013603E0206880683F
:102E40000006F5D5002EF9D0FDF770FC401BB84206
:102E500007D200980099002808BF0746481E009036
:102E6000ECE7D4E900014268B1F5827F22F0E0028C
:102E700042600AD1A168B1F5004F02D0B1F5806F70
:102E800003D1016821F040010160A16AB1F5005F42
:102E900007D1016821F400510160016841F400513B
:102EA0000160012020660020E065032001B0F0BD34
:102EB00070470000B0B501380024B4EB106F1CBFA0
:102EC0000120B0BD4EF21005CEF2000568604FF053
:102ED000FF300F2100F0FEFC0720AC602860204688
:102EE000B0BD000080B5FDF727FC80BD2DE9F041A5
:102EF000B8B027AD28464421FDF74BFAE846002636
:102F0000404688212696CDE92466CDE92266FDF764
:102F100040FA4FF480300127289002200324142126
:102F200027973190CDE9324734910721CDE935100B
:102F300037902846FDF7DEFF0F2022A951C122A8B5
:102F40000421CDE92566FDF797FE404600970E96D1
:102F5000FDF7B6FC4FF40070FDF76EFC38B0BDE82D
:102F6000F081000041F20000C4F2020001684FF657
:102F7000FF7341F001010160002181600268CEF61B
:102F8000F6231A4002604FF48052C260026822F4B5
:102F90008022026081614EF60850CEF200004FF0B0
:102FA000006101607047000080B540F2D800C2F2B5
:102FB0000000FEF797FD80BD80B540F2B810C2F268
:102FC0000000FEF78FFD80BD80B540F6FF3302683C
:102FD000C4F2000398420FDCB0F1804F1ED040F2E3
:102FE0000043C4F20003984218D040F60003C4F234
:102FF0000003984212D015E040F60043C4F20003EB
:1030000098420BD043F20043C4F20103984205D02A
:1030100042F60043C4F20103984203D14B6822F008
:1030200070021A4342F6FF33C4F20103984214DDE2
:1030300043F6FF73C4F2010398421ADD44F2000321
:10304000C4F2010398422DD044F60003C4F20103F8
:10305000984227D044F2004313E040F2FF73C4F2D9
:103060000003984212DCB0F1804F1BD040F20043C5
:1030700014E042F60043C4F20103984212D043F236
:103080000043C4F2010398420CD00FE040F6000365
:10309000C4F20003984205D040F60043C4F2000396
:1030A000984203D1CB6822F440721A434B6922F054
:1030B000800E8A6843EA0E03D1F800C00360C26242
:1030C000A0F18042A2F596324FEAB222072AC0F858
:1030D00028C007D8012303FA02F212F0E50F1CBF43
:1030E000096901630121416180BD000080B501F0E3
:1030F0001F014FF0010CD0F820E00CFA01F32EEA8A
:1031000003030362036A02FA01F11943016280BDFD
:10311000D0F808C011432CF47F4C41EA032141EA66
:103120000C01816070470000826822F07002114338
:1031300041F0070181607047B0B5026A22F00102D8
:103140000262046AD0F804E083694FF68C72CFF60D
:10315000FE721A400B688D6842EA030CA0F18042AF
:10316000A2F5963224F002034FEAB222072A43EA7C
:1031700005030AD80124944014F0E50F1FBFCC6862
:1031800023F00C0324F004042343072A0CD8012461
:1031900004FA02F212F0E50F1FBF2EF44072D1E9DB
:1031A00005542A4342EA040EC0F804E0C0F818C0EF
:1031B000496841630362B0BD70B5026A48F6FF44D6
:1031C00022F010020262036A46688269CFF6FF6449
:1031D00022400C688D6842EA042C23F0200243F25E
:1031E0000043C4F20103984242EA051E05D042F6AC
:1031F0000042C4F20102904208D1CB686FF0400552
:103200002EF0C00205EA031343EA020EA0F1804249
:10321000A2F596324FEAB223072B0CD801229A402E
:1032200012F0E50F1FBF26F44062D1E9053442EAEF
:10323000830242EA84064660C0F818C04968816388
:10324000C0F820E070BD000070B5026A4FF68C74C3
:1032500022F480720262036A4668C269CFF6FE7485
:1032600022400C688D6842EA040C23F4007243F299
:103270000043C4F20103984242EA052E05D042F60B
:103280000042C4F20102904208D1CA6840F2FF45F0
:1032900012022EF44063AA4342EA030EA0F18042D8
:1032A000A2F596324FEAB223072B0CD801229A409E
:1032B00012F0E50F1FBF26F44052D1E9053442EA6F
:1032C000031242EA04164660C0F81CC04968C16394
:1032D000C0F820E070BD0000B0B5026A22F4805250
:1032E0000262D0F820E04468C36948F6FF42CFF696
:1032F000FF621A400B688D6842EA032CA0F18043FC
:10330000A3F596332EF400524FEAB323072B42EA7B
:10331000053E09D801229A4012F0E50F1EBF4A6906
:1033200024F4804343EA82144460C0F81CC0496816
:103330000164C0F820E0B0BDB0B5026A22F480326A
:103340000262D0F820E04468436D4FF68F72CFF6EA
:10335000FE721A400B688D6842EA030CA0F18043AC
:10336000A3F596332EF400324FEAB323072B42EA3B
:10337000054E09D801229A4012F0E50F1EBF4A6996
:1033800024F4803343EA02244460C0F854C04968FE
:103390008165C0F820E0B0BDB0B5026A22F48012A9
:1033A0000262D0F820E04468436D48F6FF72CFF621
:1033B000FF621A400B688D6842EA032CA0F180433B
:1033C000A3F596332EF400124FEAB323072B42EAFB
:1033D000055E09D801229A4012F0E50F1EBF4A6926
:1033E00024F4802343EA82244460C0F854C049682E
:1033F000C165C0F820E0B0BDD0F820C0036A23F05A
:1034000001030362836923F0F00343EA02122CF004
:103410000A0319438261016270470000036A23F0C6
:10342000100303628369D0F820C023F4704343EA99
:1034300002322CF0A00343EA01118261016270475D
:1034400080B5416ACA070CD18A0715D44A071ED431
:103450000A0727D4CA0630D48A0639D44A0657D573
:1034600041E00268D0F828C0536823F4003343EAEF
:103470000C0353608A07E9D50268D0F82CC0536862
:1034800023F4803343EA0C0353604A07E0D5026813
:10349000D0F830C0536823F4802343EA0C03536010
:1034A0000A07D7D50268D0F834C0536823F4004324
:1034B00043EA0C035360CA06CED50268D0F838C080
:1034C000936823F4805343EA0C0393608A06C5D5BE
:1034D0000268D0F83CC0936823F4005343EA0C031D
:1034E00093604A0614D50268D0F840C05368BCF512
:1034F000801F23F4801343EA0C03536008D1D2F8F1
:1035000004C0D0F844E02CF4C00343EA0E03536037
:10351000090658BF80BD0168806C4A6822F4002209
:103520001043486080BD0000B0B582B00446002062
:10353000E067FDF7FBF821680546096809070BD528
:103540006FF07E4C20464FF4001100222B46CDF840
:1035500000C000F04FF978B92068006840070ED528
:103560006FF07E4C20464FF4800100222B46CDF8B0
:1035700000C000F03FF910B1032002B0B0BD202020
:103580006067A0670020206702B0B0BD70B5044638
:103590002269D4E90213006866690A43E16932438B
:1035A000066846F6F315CEF6FF750A432E40324301
:1035B0000260426822F440521A43426048F200021C
:1035C000A369C4F2000290421CBF266A3343866896
:1035D00026F430663343836044F6FF73C4F200037D
:1035E00098424FF0100318DC44F20046C4F2000683
:1035F000B04227D044F60006C4F20006B04228D0FC
:1036000044F60046C4F20006B0423BD141F28803C2
:10361000C4F202031B689B092FE045F20006C4F2C6
:103620000006B0421CD0904221D043F60006C4F2FE
:103630000106B04226D141F28803C4F202031B689E
:1036400068A61BE041F28803C4F202031B689B08D2
:1036500013E041F28803C4F202031B681B090CE06B
:1036600041F28803C4F202031B681B0A05E041F221
:103670008803C4F202031B689B0A56A603F00303E7
:1036800056F82330904242F20040C0F2F40011D0CC
:10369000B1F5004F1DD1082B00F260800025DFE856
:1036A00003F00559675D605D5D5D64000025FDF711
:1036B00099FB5DE0082B1AD80026DFE803F0051817
:1036C0001F181C18181842000026FDF78BFBB0B914
:1036D0003CE0082B63D80025DFE803F0055D6B6153
:1036E0006461616168000025FDF77CFB61E00020FA
:1036F000012620B92AE00026FDF79CFB30B3626862
:10370000012502EB420188425FD3110388425CD855
:1037100000215FEA51014FEA320313EB002341EB32
:10372000106118460023FCF79DFD4FF6FF42A0F5FF
:103730004071C0F20F0291420AD821683546C86034
:1037400043E04FF4004000260028D8D135463CE045
:1037500001253AE00025FDF759FB09E0002001258D
:1037600006E00025FDF766FB02E04FF4004000256F
:1037700058B361684A0802EB4000B0FBF1F14FF624
:10378000F070084005D0C1F3420122680843D060C0
:103790001BE0012519E00025FDF738FB09E00020BA
:1037A000012506E00025FDF745FB02E04FF400404F
:1037B000002550B1616800EB5100B0FBF1F080B220
:1037C000102826BF2168C8600125002128462166EF
:1037D000616670BD000000000400000002000000EF
:1037E00008000000010000000400000002000000CA
:1037F000080000002DE9F04381B004460068C0696C
:103800000840401AB0FA80F04009904234D1DDF807
:10381000208015460E46994608F1010709E000BFD1
:103820002068C0693040801BB0FA80F04009A8428F
:1038300022D1002FF4D0FCF779FF2168B8F1000FF6
:103840000A681DD0A0EB0900404519D8500744BFB5
:10385000C8695FEA0050E3D54FF400600862086869
:1038600020F4D0700860886820F001008860202073
:103870006067A067E0670DE0002001B0BDE8F0835D
:1038800022F4D0700860886820F001008860202051
:103890006067A06700202067032001B0BDE8F083C7
:1038A000FEE70000002848BF704700F01F0101221A
:1038B00002FA01F14EF200124009CEF2000242F883
:1038C000201070474EF60C50CEF200000068C0F396
:1038D000022070474EF6145300F00F02CEF20003A0
:1038E00009011A4400F16043B0F1FF3FC8BF03F57E
:1038F00064421170704700004EF60C51CEF2000188
:103900000A684FF6FF031A4060F30A2242F0806013
:1039100040F0FD700860704782B04FF6E0754FF6DA
:103920001F08FCF717FFFFF7E1FAFEF791FEFEF71D
:10393000FFFFFEF711FFFEF751FFFEF7B9FFFEF79D
:10394000E5FEFEF747FEFCF789FDFEF7CBFC40F2F3
:103950004810C2F2000000210026FEF733FA40F2C0
:10396000B810C2F20000FEF701F840F2D800C2F22F
:103970000000FDF7FBFF33A000F06AF843F6B42720
:10398000C0F6000700200021F022F0230097FEF788
:103990007DFD40F6004440F234094AF6AB2741F27F
:1039A0008830C4F60004C4F200094FF0C80ACAF611
:1039B000AA271F3502E001364FF47A70FCF78CFD20
:1039C00020464FF48061FCF79DFE0028F0B2A0FB7A
:1039D00007124FEAD20101EB4101A0EB810108BFC0
:1039E000C9F800A00B2911D82846DFE801F0090D1D
:1039F000111316191C1F222528064BF6404000BF44
:103A000080B2FEF7E1FBD6E70020F9E70026D2E717
:103A10001F20F5E74FF47840F2E74FF61F00EFE77D
:103A20004FF4FC60ECE747F6FF70E9E74FF6E07013
:103A3000E6E708F57A70E3E748F23040E0E74CF259
:103A40001860DDE768656C6C6F20212121000000A3
:103A500010B50446FCF77EFC82B240F22820C2F288
:103A6000000021467823FEF71BFB10BD000000007C
:103A7000000000000102030406070809000000001E
:103A800001020304A0860100400D0300801A060015
:103A900000350C0040420F0080841E0000093D00EC
:103AA00000127A000024F40000366E010048E8019C
:103AB000006CDC021903190218E2216429C41902FE
:103AC000212318E218C3196542CB636E18E219224C
:103AD000216421432184218421A519432A061963E5
:103AE0002164212319A52228194418E2212319024F
:103AF00021632122210218E232682164192219026D
:103B000018E2220622062267130B19E722062A89E9
:103B100022282A682A06432B220621A421E51964BB
:103B20001943222821431902192321C521832A255B
:103B300021A419231963216429C54AC74AC73A46F3
:103B40001984192319C71269196519232208222912
:103B5000114421E6218421E72A2742EB32682A46D4
:103B600042A974512AED643119C61A4A226921E723
:103B70002A072A487C941A097CB46C3374938D15F7
:103B80008D168CF68D158CF5951664117CB419C7BD
:103B900032AA74528CF58CF58CF584B48CF563D014
:103BA000747384D57C948CF58CD58CD58CD584D5C8
:103BB00084D484D584D584D484D484B484B484D483
:103BC00084B484B484B484B484D484B484B484B415
:103BD00084B484B484B4849484B484B47C947C9396
:103BE0007C937C9484947C735B6F5B8F638F4AEED1
:103BF00042ED218621231923298529A5216529C67E
:103C00003A28426A52CC6C326C324B8F32EC22CB67
:103C100022AA1A891A8922481A271227120711A5DF
:103C200022261A062A462A87224632C91A262288BE
:103C30002AC92AC92247226722A812261A671A67A8
:103C400012271A681A272248220621E519E611A52B
:103C500019C622481A0619C619A4118419C519A42F
:103C600019C5112318E208C210C210A1194310A1EE
:103C70001923112319441164198419641123190299
:103C800011231984110210A110E210C110C110A15A
:103C900010C210A118E218E2194321642123212344
:103CA00018E218C219C4194421645B8D212219023B
:103CB0001923198429C529C5194319432164326779
:103CC000218519442185190318C11923218419025A
:103CD00019022123210321A5338D22EA19E61903B4
:103CE0001922218422272AA921C62227324821C647
:103CF00011E63B8D21E62A482A472A2719642164C8
:103D00001943224821431903196319A521C52A26FD
:103D100029C519431943190221435B484AC7216445
:103D2000194421E7226A1ACC536D18C219021944AA
:103D3000430C2124192318E218E22A071985196473
:103D400084B33AA9330D7C947C52222995162229FA
:103D500032AB32AA7C94536F749411A64B6E955774
:103D600095168CF695168D1595168CF58CF584F5B3
:103D70007C948CF58D158CF58D158CF584B48CF5B3
:103D800084B48CF58CD58CF58CF58CD584D484D406
:103D900084D484B484D484B484B484D484B484B403
:103DA00084B484D484B484B484B484B484B4849453
:103DB00084B48494849484B484B484B47C947C94D3
:103DC00084947C937C937C7363B05B6F42AB3A8C3E
:103DD00042ED19241923296429A6298531C73A28D7
:103DE0004AAB4A8B4AAB63D0434E126912281A89F8
:103DF0001A891A891A681A271A2719E619C6118406
:103E000011A511842AA819C5222722262A88332B16
:103E100022882AA8226722671A681A8812261A2777
:103E200011E611C511E6224719C519A41964090242
:103E300019A519E619C519A5114311A5118419E68B
:103E40001184116410C210A1192310C1194310A1CB
:103E500021A511231123116419441943112310E2E0
:103E60001943114310C110A110E210C110C110C1BB
:103E700018C210A118C221442985210318E2210289
:103E800018E3332C21A4214321642A062A2819850A
:103E900021A521C519431943192321431944194365
:103EA00021851902190219022103190229A5216489
:103EB000212318E218E218C221C522881A0622AA74
:103EC000198529C532AA3ACA2248220622062A8919
:103ED0002ACA22072AA92A8921E621C52A0621A55C
:103EE00019432A6822CB22CB11C621E72A272A06AA
:103EF0002103216421C521C62164218421C62AED24
:103F000019E8192319C719851922194321C6214413
:103F100019C719A63A8B2A0810E3116529E721442D
:103F20006C117C93330D84D59D5774529D7753B09B
:103F3000436F6C32226A8D16434F95156C526C326A
:103F400095368D168D168D168CF595168D158D154D
:103F50008D158CF58D158D158D158D158CF574536E
:103F60007C9484B48CD58CF58CF58CD584D484D495
:103F700084D484D484D484D484D584B484B484B4E0
:103F800084B484B484B484B47C9484B484B484B499
:103F900084B484B484B47C94849484B47C947C94F9
:103FA0007C937C937C947C5363D04B2D42EC430DEB
:103FB000322A42ED1923192331C63A08426A532D99
:103FC000638F5B4E4ACC63F1122812281A8912279C
:103FD00012071207124711E611A519A5196419A5B0
:103FE0001164116419A52227434D2A672AC932EAB0
:103FF0001A471A681A671A671A471A2611E612062C
:1040000011A519C519A519C52206118419641184B1
:1040100011A511641123196419A419A5116419C6F5
:1040200019A61164112310A111641184194310E21F
:1040300019A51102112219C51122194310E21943C1
:10404000112210C218E210C210E210A110C110C15A
:1040500010A110A131E621432103210218E2190227
:104060002A2721C529C6298521631943222819E653
:104070002A271964196321C51902216418E318E27B
:1040800018E219022123216329E521841923214300
:10409000212319022103298418C2190221E62227AB
:1040A00021C6194319A62A892A8921C521642A888B
:1040B0002A88192319842B2E332E194321A519641C
:1040C000216329C62229228A22071A6922282ACA9C
:1040D0003B2C2ACB116421E71964194321E7232DD6
:1040E00019C7194419231902194321E621E719C6F2
:1040F00095361A286C52536E19444B4D192318E209
:10410000192321E83B0E95369556955795575390B0
:10411000747395576C733AED228B84D5953695362A
:10412000951695168D1695368D158D158D158CF564
:104130008CF58CF58CF58CF58CF58CF58CF58CF577
:1041400084B464115BB08CD58CD584D484B484B42D
:10415000849484B484B484B4849484D484B484B4BF
:1041600084B484B484B484B484B484B484B48494AF
:10417000849484B484B484947C9384B47C93849431
:104180007C947C947C937C937C737C737C7374535D
:104190006C323A8B5B6F31A64249428A5B6F6C117D
:1041A00063D05B6E4AEC63B03B2C12481A6A11C6AE
:1041B000120711E711A611A5118519A519A511025C
:1041C0001143114322272A89222632EA19C511E612
:1041D0001A061A471A261A0619C5118511A511A51E
:1041E00019C5116419C511641A061184112319C562
:1041F00019641164112319C51164116411841164C7
:1042000019851144198408C119A419C511641143F1
:10421000198511021943196311221123190310E2A0
:1042200010C110A110A110A110C110C118E210C13D
:1042300010C110A119232123190218E21984216346
:1042400021A4332C29C5296421A629A4196221831C
:1042500021A419431963190218E2210318E221432A
:10426000212218E218E221021902192221432164B5
:1042700018E219852207194329C61923214421630D
:1042800019C6228A22062A6821843A8821A42A068D
:10429000220621C5114321C61A272A8A1A69222714
:1042A00022062123190219A521842B2E334F1A2708
:1042B00019C521C61A0719E719852185196412AC99
:1042C000198619852164194329C52A272A282228F5
:1042D00074737CD484F564328D166C3211231945C5
:1042E00074732A2919E89D779577955795569556B1
:1042F0009556953695367493226B3AED84F563F2B4
:10430000953695369536951695168D158D158CF531
:104310008CF58CF58CF58CF57C9384B484D58CD598
:104320008CD58CD57CB484B484D484D484B484D423
:1043300084D484D484B484B484D484B484B484B45D
:10434000849484B484B484B484B4849484B484B4ED
:1043500084B484B47C9484947C937C947C947C9486
:104360007C937C947C937C937C937C937C737C7314
:104370007C73428B63B04A8B4AAB5BB06C116BF2BF
:1043800063B05B8F4ACC6BF1434D11E7098611A6F0
:10439000118611851185112409021985112310E256
:1043A00010C210C218E221E6222619E519C519E645
:1043B00022471A0619E611C519E519A511641164F9
:1043C000116411A5198511231984118411A5118572
:1043D0001184112311441185118411A41184112316
:1043E0001964116419841984116411A41164198465
:1043F00011231103196411221123190310E210E291
:1044000010C210A1108110E210A110A110E210E260
:1044100010A110812123190218E22123190210E1B1
:1044200021631942210229A51923212321832182F5
:1044300021C519421963216418E218C22102190228
:1044400021A419222964214318E2214329A629E63F
:104450001943334C2227192221A521432185218587
:104460002A082143212321642163320619233AA813
:1044700022272A262163190221841943228A334FD5
:1044800019A521C51943192219221A062B70334E7A
:10449000220621E72248218521A51922216321E650
:1044A000216319432A052A4622052A062AAA330C23
:1044B000432C6472334D5C328D16A5973AAB6C94E5
:1044C00084F59536432F9D779D779D778D159516AD
:1044D000957795579536749384D58D166C533B6FAD
:1044E0006C538CF57C738CF595168D1595368D1562
:1044F0008D158CF58D157CB464126C126C1284B41D
:104500008CF58CD584F584D584D484D484D584D595
:1045100084D484D484B484D484B484B484947C94C3
:1045200084B484B484B484B484B484B484B48494EB
:1045300084947C947C947C947C937C947C937C94F5
:104540007C947C947C937C937C737C737C737C7371
:104550007C73530E532E536F63D16C125BB03B0EC2
:104560006BD15B6F52EC63B0430C096511E711A688
:10457000118511A5118510E210A110C210C210C240
:1045800010A210C210A110C219841A061A061A0627
:10459000224719E619C51184116411431984116465
:1045A0001123114409A51164116419E619A511C656
:1045B00011A519E611A61A2722472A4719A5112382
:1045C000196411641984196411231143110311230F
:1045D00011021103112319021923194310C210C229
:1045E00010C2192318C210C210C1108110A110C22C
:1045F00010E210A118E218E2118522072184196344
:1046000019221922190218E1196321643B8C21C374
:1046100019222184196419A618E219021902190233
:104620002143192229C43A8721432143212318E237
:1046300021C519642A8A22071923192329A51902D9
:1046400019021902190221842A2721A52143214296
:1046500029C522052183192229C521A4216422ED1F
:104660001AAB21C519631902190219431A062A49FE
:1046700019E522272207324821432962212221639A
:10468000194321A42A252A452205198321C521E69B
:104690003AC83AC8430A7C73A59784F574947C940D
:1046A0008D1684F57CB495369D989D778D168D1664
:1046B00095579557957774948D16955795362A8CFE
:1046C000226A63F15BF27C9384B47C73747384B468
:1046D0007C9484D48D157C736C3274536BF26C3281
:1046E0006C326C126C33747384B4849484B47453D9
:1046F00064126C336C337CB47C9484B47C9384B447
:10470000849484947C9484B484947C947C938494E2
:10471000849484947C937C947C947C937C947C930C
:104720007C947C937C937C947C737C737C737C738F
:104730007C736BF15B2D63D16C1153903B0E432F57
:104740006BD15B8F4ACC63D063F12A8A094411454F
:10475000112419E7196510C210A110C110C20881F7
:10476000108110A210A210E3192319E622271A279C
:104770001A2719C521A511231164114311440944B5
:1047800011021102092309A511C611C5118511A530
:1047900011C511E61A061A061A0719C6198410C29D
:1047A00011021164118419A5112310E210E2110302
:1047B00010E2192310E2108110E218C110A110C1FB
:1047C00010C210E210E210E2110210E210C210A1B9
:1047D00010A11902192319A41A061943228821C508
:1047E00029E52163190218E229632AA919E521A301
:1047F000222621841964110218E218E218E2190233
:104800002163216332A92184214421234B8D2A482D
:1048100021A5210219231922214342AA1922190292
:104820001902212218E219232A482A8919632163CF
:1048300021C421E521C529E529E521A5218521E519
:10484000218421A529A4196321C4192329E61984E7
:1048500021A52A4719432163190229423162218384
:104860002143194221E42AA62A2521C42A06328896
:104870003AE932873AEA9D777C946C336C5384F53D
:1048800084D5747384D58CF58D167CB4745384F5FB
:1048900074948CF595567CB49D7795567CB46433AE
:1048A0004BD12A694B6F4B904B90434F4B90641206
:1048B00064127C9384F5743363F26C325BF1434F82
:1048C0003B0E3B0E3AED3B0E5BD163D17473641229
:1048D0003B4F4B904B906412641274537C948494BD
:1048E00084B47C947C737C73849484B47C947C9432
:1048F0007C937C9484947C937C937C937C937C9336
:104900007C937C947C937C737C737C737C937C73AE
:10491000743263D052EC63B0430E3B0E4B6F536F57
:104920006BF163B052EC532E5BB04BAF22AA12086E
:10493000118611861986190308A110C110C21081B1
:1049400008A110A22186532E42CB21A611A51A2719
:1049500011C519C5198411021985112311A61185D4
:1049600011641143094409A5118419C619C61164BB
:10497000118419C611A511A519E619E6114310E213
:1049800010C2110311641164110310E210C111036C
:10499000110310C2108110A11123192319231963C7
:1049A000194319231103194310C118C210C210A1D1
:1049B00010E211021A0619E51A6722272A2722682F
:1049C00022892A482143194321A419A41AAA19E4C7
:1049D00033CF2205216319A5216321A419C421A481
:1049E00029E621C52AAA21C618E219853B0B3B8C72
:1049F000330A194318E21922190129C53A0711028D
:104A00001923190119432AA829C529E63248194250
:104A10001942222621C522061AAA2184214329A44B
:104A200029C5216329C421A4194329C421E521A44E
:104A3000196429E62A88216319022962296329C495
:104A4000216329E521A321E43B49198332673267B9
:104A500032873AC94BAE438F43AF6C744BD164522B
:104A60006C736C336C327CB47C94645343B05BF2F3
:104A70006C537CB48D16955795368CF67C9453D137
:104A8000332E3B6F3B2E434E3B2E3B2E53D16412B5
:104A90003B2E6C326C522B2E330E3B2E3B2E32EDC6
:104AA0001A8B22AC3B0D330D32ED330D5BD14B4FE6
:104AB000430E3B0E53B0539053905BB07C537453F2
:104AC000745374536C326C12745374536C1274328A
:104AD00074537C737C947C937C947C937C937C73E4
:104AE0007C737C737C737C737C7374527C737C7377
:104AF0006BF16C11636F534E536F4B4F5B705BB038
:104B000063D15B6F52EC5B8F2AEC334E12692B0C36
:104B100053AF3AEC224A112408C210A210E210C28C
:104B200008A1110311A642AB42AB21E710E319E63D
:104B300011A5198419A5198419C5092309641184BB
:104B400011850964094311C611C511C509A511A52F
:104B5000116419A519441103198419850902110258
:104B600011031164114319231122110210A110E243
:104B700010E210C210C211021102110218E210C19B
:104B80001923192310E210E21102190210C210E2D7
:104B900011021103438D222619E519631984224756
:104BA0002A6911032AAA1923192219E619C51228FC
:104BB00012482B2B19C4334B2A863329332B3BAD98
:104BC00043AD334B338D22C93B2B43AC226822C902
:104BD000334B1A8822872A472184298432062206E9
:104BE00021A42207234A2B0A21C529C521A5216416
:104BF000436B218421A5222712CB114429A51963D7
:104C000021A42A06216318E2212319222A2621A59C
:104C100021E532472A482A2621432142218329C5FA
:104C2000214321A421E521E5218421C421C52A05B0
:104C30003AC8432A436C4BD043D053F25C336432BE
:104C400064335C124BD15C126C736C532B2E334F5C
:104C500064126C537CB484D574536C535BF2434F31
:104C6000332E332E330D3B2E330D330E2ACD432EF0
:104C70003B4E53D0330E2B0D32ED432E3B0E2AEC20
:104C80002AAC2AED2AED2AED2AED32ED3B0D3AEC65
:104C90003AED53904B6E3B0E32ED226B32ED42EE0D
:104CA0004B4F5BB15BD15BF163F163F1434F432E3B
:104CB0004B2F6C127C937C737C937C737C737C7322
:104CC0007C937C737C737C737C737C737C536C32BD
:104CD00063F15BB0532D532E5BB053905BD15BB04F
:104CE00063D163AF52EC430B1268124711E709E737
:104CF000226A12081A2A1124110310A210A210A16C
:104D000010A210A108C23A6A4AEC22281A0611C55C
:104D100019C51164118419C609A5114408E2118549
:104D200011A511A411C511E611A511A5092411643D
:104D3000114419C51123118411231143110210E2EA
:104D40001143114419A519841943110210E21123CA
:104D500011231123110310E21102110210C110E2FC
:104D600010C21902192319021902190218E210E2DD
:104D700010C210E27493749332A9218321A4198480
:104D8000192221C52AAA19C518E2190211C612084A
:104D90001A68194321A32226330932E9336B2B0AFF
:104DA00022C83BAC33AD2B8C338C336B2B0A1AA847
:104DB000230A22EA334A3B4B3B6B3B6C2AC9334BF9
:104DC000338B43CD4BED2AEA32A84BAD2A264B4B11
:104DD0002A8829C5196322691A28194321E61A2845
:104DE000196419E5222722061922214332C910E24B
:104DF0001923196321A43287218321C4326721C476
:104E000021A4192221C421C521E522062A051963FE
:104E10002225220542E93AEA334D43AE43AF43D05F
:104E200043B03B90336F2B4E4BD153F1336F2B4E2E
:104E3000232E4BB0747495567CB453D24BB0330EC2
:104E40003B4F2AED22ED22ED22ED22EE1ACD1ACDB6
:104E500022CD2ACD22CD1AAC1A8C2AED2ACD2AEDEC
:104E6000330E334E2B0D1ACD1ACD22CD2ACD2ACC9E
:104E70002AED32ED32AC2AAC1AAC22AD1A6B228C80
:104E800022AC2ACD2ACD2AAC3B0E432E3B2E32CD6E
:104E90003B0E4B4F432E5BB074327C537C737C7360
:104EA0007C737C737C737C737C737C73745363F14D
:104EB000534F42ED530D534E5BB04B4F5BD05BB045
:104EC00063D1536E3AEB32CA1247120711C511A5CE
:104ED00019851123112311650964110310A108819B
:104EE00008A110A1088129E719C72A4919A519C5E0
:104EF00019A408E2118511A511C51164090311A5B2
:104F000011841164118411E611A50943116508C2C9
:104F100011241164116419A51143116410E21123C5
:104F20001143110310E2112319441123112311031A
:104F3000110311231102112210E210E210A110A19D
:104F400010C110A1108110C1194310E210E210C26B
:104F500010E210C1430D3ACC1985190319021983C7
:104F6000216321432A8818C218C218E219E619C51C
:104F700029A519632A0521E533093B4A1AA81A67AE
:104F80002AE91A471B0A232B230A23092B4A2B8CB5
:104F9000230A22E9332A2AC93B8C43CD43EE3B8CBA
:104FA000336B3BAC338C1AA83B8C336C3BAD438CDE
:104FB0002A6732EA3B8D19C5222632EA2B6F2B90E5
:104FC0001A892163220621E5222521C42A261923D4
:104FD00019232A67220522054B2A21A43267194288
:104FE00021A41963218321C51164220629C521A4A6
:104FF00019632A052A464B6C3B6C3B4C3BCE2B6E0F
:10500000336F3B902B2E2B2E2B2E3B6F336F230EAB
:105010002B2E2B2E332E7CB474944390332E330ED0
:105020003B4F2AED128C22ED1ACD1ACD0A8C126C50
:10503000128C12AC1AAC1AAC1AAC1AAC22AC22ED1F
:10504000334E3B4E22ED12AC128C1A8B2ACD2ACD58
:1050500022AC1A8C1A6B1A6B1A8B228C22AC226B24
:1050600022AC2AAC228C228C2AED3B0E2AAC2AAC34
:1050700032CD2AAC432E53B05390432E4B4F63F1A5
:105080006BF174326BD16BF16BF1641163F13AED3A
:1050900032AC532E5B2D4AED53905BB05BB05BB0EE
:1050A00063F15B6F32EA1AA912271143116319C524
:1050B000094311441164094311441103088110A2EA
:1050C00010A2108110A1110319855B2D222719E66A
:1050D000118410E21143098511A511A409A509A5A0
:1050E00011851184096411A509841164116408E211
:1050F000118511231144116411641143114311846A
:1051000019841164116408E21123110311431184FD
:10511000194411231103110311021081108110A2EF
:1051200010A110A2088110811903110310C210C22E
:1051300010C110A17473747311432183190121A547
:10514000220621E618C110C11903196421C52206DF
:10515000112229C5196321E51A061A061A4722C920
:10516000334B2B2A234B1AC91AC9232A2B4A22E96B
:105170001A472AE92AC922A82AC9334C334C2AC91A
:1051800022A922CA1AC92B2B336B232B336B3BACBE
:105190003B4B43AC3B2B32C9196321E619E622068F
:1051A0001943196321E521842A46328732C821C573
:1051B00018E219232A4522042A462A4621A4196303
:1051C000194319432184222621C5216421A421A445
:1051D00029E521E532A8432A2A862A872B4C338FDA
:1051E000338F336F334F336F2B4F2B2E2B0E2B2ED2
:1051F0002B2F1AEE12AD2AED330E2B0E2AED230DB6
:105200001ACD12AD026C128C128C1AAD1AAD1AADF9
:1052100012AC128C1ACC0A8C0A6B126B228C22CD27
:10522000230E1AEC22CD22CD22AC22AC22AC1A8B5A
:105230001A6B1A6B1A6B2A8C22AC224B226C2A8CAA
:105240002AAC226C1A8B1A6B22AC32CD22AC228C87
:10525000432E53B04B4F53B05BD1432F32CD430D50
:105260003AAC3ACC430D32AC32AC3B0D3AEC3ACCD2
:10527000222A42EC634E5B0D6BF163B063D16BF19C
:1052800063F14B4E22A912681A0711A511A5094313
:1052900011C511C61A471A0611C61103110310A22F
:1052A00010C210C210A210C219655B2D326919E636
:1052B00011A408E20923114409C51184096411C627
:1052C0001185116411A511C5116411841184118413
:1052D0001164112319851103112311431123112383
:1052E000114311641184116411431102114311849B
:1052F000110311021903192310E210A2108118C220
:10530000108110A11081108110E210E210C210E291
:1053100010E210C16C52747322AA21C421642227A6
:1053200019E610C1214310E22144194421E52A263F
:10533000328821C52A6619E619E51A0711E622689E
:1053400022671A47232A1AE922C922C9222722EAF8
:10535000336C19A522673B6B2247222719C52248C7
:1053600019E61AEA2B2B338C2AEA22C922681A671B
:1053700019E62AC9330A22C922E9334B2A4719639D
:1053800021A421C529E62184194321A42A662205E6
:10539000198419221943194321C443292A66112269
:1053A0001922190221632A4621C521E6218429E513
:1053B00042C93AA922063AA8224621C42B6D2B6F76
:1053C000236F2B4F2B4F232E2B2E230E232E1B0E02
:1053D00012CD1AEE230E2B2E332E332E2B0E230E30
:1053E000026C12CD1ACD0AAC12AC12AC128C1ACDD2
:1053F0001ACD1ACD1AED128C1AAC1A8C22CD1A8C39
:105400001AAC22ED22ED22CD22AD22AC228C1A8CD8
:10541000228C228C228C228C228C228C2AAC2AACCC
:105420002AAC2AAC1A6B22AC228C32CD2AAC2A8C44
:10543000434F53B0539063D05B6F432E3B2E32CD1E
:105440002A6B32AC2A6C224A2A6B5B2D3ACB32ABE8
:105450001A294B0C6B6E5B0D6C116C1263F15BB017
:1054600053B032EB1A68124711E6120611C61A073A
:1054700011E611C511C511E611E619C6198510E22C
:1054800010C210C210C210A219453ACB11642227D3
:1054900011C5092311A511A511C509A509C50964DF
:1054A00009A511C6116419E5116411A41164112331
:1054B00011241103114411641143114311231102EA
:1054C00010E211231964114311230902116411031D
:1054D00010C210E2110310A110A118C218C210A12D
:1054E00010A110A1108010A1110310C210E210E24F
:1054F00010C210E26C52747319E7218319851123CD
:1055000018E12123212321A4218421E521C5216340
:105510002A682204436D19A419C52AEA22A9224740
:1055200019A522261A27124722272AC9226822C92A
:1055300022A911642247222711A5198419A51984CB
:1055400019C519A619E619E6228911E6226822472B
:10555000216321A52AA91AE92B4B22C932C9194373
:1055600021E5196421C52A061963194321C42205BE
:1055700019C521E622061902194321C52A26192335
:1055800021C4192219432A0521C52A6832A92A05EE
:105590003AA82A262A273AE93B0A3B4B2B6D1B2DBA
:1055A000338F2B6F2B4F232F2B2F2B2F1ACD0AAD81
:1055B00012CD12CD230E334E332E3B4E2B0D1AED52
:1055C0000AAD0AAC02AC128D1ACD1AAD12CD128CF6
:1055D000128C1AED22CD22CD22CD128C1AAC1AAC2F
:1055E000126B1ACD1ACD22AD1A6C1A8C228C228C19
:1055F000228C228C228C228C228C228C228C22AC1B
:105600002AAC228C228C22AC228B228B226B228C05
:105610002A8C434F5BB164124B9032CE2AAD2AAC38
:1056200019A742CB11662A4A1A28224932AA32CB3C
:10563000224A3AAB632D52EC6C115BB05BB063B0A5
:10564000538F1A69122711E611C511C512271A06C0
:1056500011C5118411441164112319E72A8B1144D7
:1056600010C210C2110308A210E310C210A11984C5
:1056700019E61123114311C511C511A519E619C663
:10568000116411E611A519E61144114311231164A7
:10569000114411031144090311031123112310E2D2
:1056A00010E21144114310E2110308E21123110327
:1056B00010E210E21123112210C11081108110C2DA
:1056C00010A210A110A110A1110310C2108110E2AC
:1056D00010A110C174936C7309851A28190319A5B8
:1056E00019E619C519431943196419A421C51A27C4
:1056F00019C529C42AEA4C521A2722C91A0619C503
:105700002A47114319642227220621E52A881A060E
:10571000226719A522071984222719E6334B218510
:105720001A2722881102112319852227224721C511
:1057300021851943222722EA2B4B3B8D230A22AADB
:1057400021E621432184216429E52184218421A4A7
:1057500019C4194321C519231922196319432A06AB
:1057600032A821A42A0521A421E521E521C52A0585
:1057700021C429C4324732673AA832E943AE3BAF6D
:1057800043CF2B4F1B2E1B4F232F2B2E2B2F1AEECD
:105790001ACE128D1ACD2B0E230E1ACD1AED028CB5
:1057A000026C028C0ACD028C0A8C0A6C026B0A8C89
:1057B000128C12AC12AC22ED1AAD128C128C128C1F
:1057C000128C1AAC1AAC126C1AAC22AC1A8C228C49
:1057D000228C22CC2AAC226B2AAC228C228C1A4B33
:1057E000226B1A8C1A6C1A6B1A8B22AC22AC22AC6C
:1057F00022AC22AC4B706C32539032AC2AAC32AC3F
:1058000042ED5B4E5B8F536E3ACC3ACC32AA2A699A
:1058100011E82A696B4D52AB6BF15BB063B15BB0C1
:105820005BD02ACB11851964114411A5118511850E
:105830001184118419851123110211242A8B5B4EC6
:1058400042CC42AB4AEC322810A2108110C219445B
:105850001A271A07116419C511A419E511A5118594
:1058600011A5118511A51185090311231144116496
:10587000116408C2110211031103090308C210C107
:1058800010E21943110310E209021143112308C267
:1058900008C108E210C210C1110210C1088110A194
:1058A00010A110811081110310E210A110C210E2AA
:1058B00010C210C174737473114410E2190221A54F
:1058C0001985122821642A48216421E5198429E5D3
:1058D0002A46194321C44C102AEC226719E532E903
:1058E0002A88224719C419641984198421C62226DA
:1058F0003B0A19642B0A22A82B2B19C51A47232B04
:10590000222619A42184192319A521C511842AA9A5
:10591000110221C52A4821E6220722A93B2B192280
:1059200021032164214329A429A5196329E52164C0
:105930001963194321A421841922218419632A0699
:1059400021E52A46220519221964192321A421A43C
:10595000196321A43267326722052A462AC93B8D82
:10596000338E0AED132E02CD1AEE1ACE1AEE1AEE6F
:10597000028C0AAD230E2AEE22CD1AED1B0E0A8DE3
:10598000028D028C028C026C128C12AD12AD0AAC2C
:1059900012AC12AD128C128C12AC12AC0A8C1AED35
:1059A00012AC126C128C128C128C1A8C1A8C1A8CEF
:1059B0001A8B1A8B228C1A8C228C22AC22AC1A6B7A
:1059C0001A8B1A6C124B1A6C1AAD22AC1A8C126B11
:1059D0001A8C1A8C2A8C430E32AC536F5B8F534E49
:1059E00063D06BD15BB05B8F4B2E5B8F536E6BD0F4
:1059F000430D63AF738F52AB6BF163B063B063B0B1
:105A000063D15B8F19A61965110311031164196520
:105A100011431964112310C210C110A11986532E0D
:105A2000636E530C530D196510C208A110C22144B6
:105A300021C61A2711A5098411A511A411A5118544
:105A400011631184196411231103114409031124F2
:105A5000114310E208C210E210E211031102110317
:105A6000112411231123112311231143112308A100
:105A700010E208E208E210A110C1088010C108601D
:105A80001081088110A108E210E210C210A110A13B
:105A90001081088174936C931124212221231943CE
:105AA000194319C6112321842164216329C4194390
:105AB00032462184218321E522471A6722672AA8DA
:105AC00019C5228722C911A41944194319C52227CF
:105AD0002AA822882AE92B2A2AEA22891A68232A54
